:1000000008308A00002800000C00D4224D28201D52
:1000100025173133200043100001D3225410D4227D
:100020004D28201D25173133200043100000533088
:1000300084008313000803192A280630F800F7010A
:10004000F70B2028F80B1F287B30F700F70B26282A
:10005000800B1D28080058182F2888113028881573
:10006000831688118312D8183728081238280816E2
:1000700083160812831258193F28881240288816C0
:10008000831688128312D81947280813482808179E
:100090008316081300008312081583160811033015
:1000A000F700F70B512883120811831608118312E9
:1000B0000800D90183168815003083128819013091
:1000C000D9048316081600308312081A0130F7008D
:1000D0000310F70D7708D9048316881600308312B1
:1000E000881A0130F700F70DF70DFC30F705770897
:1000F000D9048316081700308312081B0130F7005B
:10010000F70DF70DF70DF830F7057708D904590802
:10011000F8000800831608110810881083120810D0
:100120008316081088150816881608178312881475
:10013000831688100000831208158316081100002A
:10014000831259207808D80008118316081100007E
:100150008312081583160811AD28AE2800008312FB
:1001600059207808D7000811831608118811081241
:10017000881208138312580EF700F030F70577083D
:100180005704F8007808D700D71FC828831692288C
:10019000D508031DCD280810CE2808148316081092
:1001A0000000831288108316881000008312081143
:1001B000831608118312560ED7000F30D705570843
:1001C000D8002B2056080F39D700D8002B20080064
:1001D000520BEB28EE284030D300EF28D30101303A
:1001E0005102D30753088038D400D5015408D600F3
:1001F0008A2008005008073A031908290B3A031906
:100200000D29063A03191529023A03191B29202939
:100210000130D100D200E8202529D5010130D600D7
:100220008A200230D300172025290130D100023066
:10023000D200E8202529D5011030D6008A202529B2
:100240000130D5005008D6008A20080083161F13FD
:1002500083121F179F1383169F1383121F14831675
:100260001F109F141F159F154030F80083121F08A0
:10027000C73978049F002830CE000C30CF00013001
:10028000D0000630D100081183160811831208101F
:10029000831608108312881083168810881108129C
:1002A000881208130811081088100F308312D30029
:1002B00017200130CD004D08033C031C6729033093
:1002C000D8002B200530D3001720CD0A5B2902303F
:1002D000D8002B200530D3001720CD014D08033C5A
:1002E000031C7E294E304D07840083130008D20082
:1002F000D5015208D6008A20CD0A6E290130D100DE
:10030000D200E8202030D000FA200130D1000230A5
:10031000D200E8202030D000FA200430CD00FA309E
:10032000D3001720CD0B8F298A150A1216280B0827
:10033000CD008B13831603178C170C1400000000DC
:1003400083120313CD1B8B1703170C087F39031976
:10035000EB290313CD0003170D080313CE00031779
:100360000F080313CF004D08D000FA204E080317E2
:100370008D0003134F0803178F0003130B08D000E1
:100380008B13831603178C170C14000000008312C4
:100390000313D01B8B1703170C0D0E0D7F39031998
:1003A000EB290313CD0003170D080313CE00031729
:1003B0000F080313CF004D08D000FA204E08031792
:1003C0008D0003134F0803178F008D0A03198F0A3E
:1003D000031397290317031308008E30F7005508FD
:1003E000F8005408F900FA01F808031D012A7908F9
:1003F000F800F9010830F702F808031D012AF70197
:10040000092A0310F81B082AF90DF80DF703012A31
:10041000F813080057080319CF2AE3005B080319F3
:10042000CF2AE302031C192A7F30E3070318CF2ADF
:100430001F2A8130E302031CCF2A0319CF2A630845
:10044000F700F801F901FA01E2015808E100E117AB
:100450005908E0005A08DF001930E3005E08DF02A7
:100460000318422A0130E0020318422AE10203186D
:10047000422AE2020318422AE20AE10AE00A5E087E
:10048000DF07742A5D08E00203185D2A0130E102EB
:1004900003185D2AE20203185D2AE20AE10A5D08F8
:1004A000E0075E08DF07031C742AE00A031D742AB4
:1004B000E10A031D742AE20A742A5C088038E1020A
:1004C0000318732A0130E2020318732AE20A5C0857
:1004D0008038E1075D08E007031C512AE10A031D8B
:1004E000512AE20A512A7A14E30B772A822A03104E
:1004F000DF0DE00DE10DE20D0310FA0DF90DF80D21
:10050000E40D2E2A641C8A2A0310F80CF90CFA0C4C
:10051000E40C8D2AF7030319CF2AE41BB62A031033
:10052000DF0DE00DE10DE20D5E08DF020318A22AE7
:100530000130E0020318A22AE1020318A22AE20213
:10054000031CC52A5D08E0020318AD2A0130E10250
:100550000318AD2AE202031CC52A5C088038E102B8
:100560000318B62A0130E202031CC52AFA0A031D49
:10057000C52AF90A031DC52AF80A031DC52AF70A68
:100580000319CF2AF80CF90CFA0C5808E3005C08A0
:10059000E306E31FCD2AF817D32AF813D32AF7016D
:1005A000F801F901FA0108005A080319442BE20086
:1005B0005E080319442BE2070318E52A7F30E202A4
:1005C000031C442B0319442BE92A8130E20703184A
:1005D000442B6208F700F801F901FA015B08E60014
:1005E000E6175C08E5005D08E4001830E200E3016E
:1005F000641C122B6108FA07031C042BF90A031D63
:10060000042BF80A0319E3176008F907031C0B2BE6
:10061000F80A0319E3175F08DC00DC175C08F80729
:100620000318E317E30DF80CF90CFA0CE60CE50CD3
:10063000E40C0310E20BF72A0130F7070318442BF0
:10064000F81B292BE60DFA0DF90DF80DF703031928
:10065000442BE61F3A2BFA0A031D3A2BF90A031D15
:100660003A2BF80A031D3A2BF80CF90CFA0CF70A8E
:100670000319442B5B08E3005F08E306E31F422BEA
:10068000F817482BF813482BF701F801F901FA0184
:10069000080080308318D806DD01DE015408DC0034
:1006A0005808DC0653080319392CDB00F7005708FB
:1006B0000319422CDB020319DE2B031C9C2B580868
:1006C000E100E1175908E0005A08DF00DE010310DD
:1006D000E10CE00CDF0CDE0CDB0B662BDC1F732B5C
:1006E0005D14562C5D105B105D165630840083132C
:1006F0006B2C5D12DC1B862B5B1C912BE10CE00C40
:10070000DF0CDE0CF70A0319512C912BE11B942B03
:100710000310DE0DDF0DE00DE10DF7030319512C81
:10072000862B5D17FE2B5D135408DC00DC1F9A2B13
:10073000E1174A2CE1134A2C5708DB00F700530855
:10074000DB025408E100E1175508E0005608DF001D
:10075000DE010310E10CE00CDF0CDE0CDB0BA82B40
:10076000DC1FB52BDD14562CDD105B10DD165A3066
:10077000840083136B2CDD12DC1BC82B5B1CD32B7A
:10078000E10CE00CDF0CDE0CF70A0319512CD32B23
:10079000E11BD62B0310DE0DDF0DE00DE10DF7039D
:1007A0000319512CC82BDD17FE2BDD135808DC0074
:1007B000DC1FDC2BE1174A2CE1134A2C5808E1001E
:1007C000E1175908E0005A08DF00DC1FEB2BE113AA
:1007D0005D15562C5D11DE015B10563084008313CD
:1007E0006B2CDC1B142C5408DC005B1CFE2BE10C76
:1007F000E00CDF0CDE0CF70A0319512CDE1F0F2C66
:10080000DF0A031D0F2CE00A031D0F2CE10A031D54
:100810000F2CE10CE00CDF0CF70A0319512C5D1BC7
:10082000932BDD1BD52B332C8030E106E11F1C2CD4
:10083000562C5808DC00292C5408DC00E108031D64
:10084000292CE008031D292CDF08031D292CF701A2
:100850004A2CE11B332C0310DE0DDF0DE00DE10D02
:10086000F70B292C512CDC1F372CE1174A2CE113F4
:100870004A2C5708F7005808E1005908E0005A08C8
:10088000DF004A2C5308F7005408E1005508E00047
:100890005608DF006108F8006008F9005F08FA00F8
:1008A000892CF701F801F901FA01892CDE01DF0931
:1008B000E009E109DE09DE0A031D642CDF0A031DDD
:1008C000642CE00A0319E10A5D18722BDD18B42BC1
:1008D0005D19EA2B192C0008DF07031C752CE00AB0
:1008E000031D752CE10A03195B1484030008E0075B
:1008F000031C7D2CE10A03195B1484030008801F8C
:10090000803AE10703185B145D1A792BDD1ABB2BC3
:10091000F12B08004030F8001F08C73978049F0009
:10092000D201D101D001CF01CE014D084E020318F2
:10093000FD2C1F151F199A2CD5011E08D400ED217E
:100940007A08DA007908D9007808D8007708D70043
:10095000DE01DD017F30DC008630DB000A227A0810
:10096000D6007908D5007808D4007708D3007A0833
:10097000DD007908DC007808DB007708DA00E101A7
:100980004030E0001C30DF008B30DE00D4227A08DB
:10099000D6007908D5007808D4007708D3007A0803
:1009A000DA007908D9007808D8007708D700DE0186
:1009B000DD012030DC008230DB000A228310520887
:1009C000D6005108D5005008D4004F08D3007A084B
:1009D000DA007908D9007808D8007708D7004923C9
:1009E0007A08D2007908D1007808D0007708CF00C3
:1009F0000A30D3001720CE0A952CD5014D08D4001B
:100A0000ED215208DA005108D9005008D8004F08EB
:100A1000D7007A08DE007908DD007808DC00770866
:100A2000DB000A227A08A7007908A6007808A5004A
:100A30007708A4008A150A1224284B08840083131F
:100A40004C1883175A088000840A8001CB0A0319C6
:100A5000CC0A08000B08CE008B13831603178C17E3
:100A60000C140000000083120313CE1B8B17031815
:100A7000612D03170C087F390313CE0003170D08EF
:100A80000313CF0003170F080313D0004E08DA003A
:100A90001D254F0803178D000313500803178F00FF
:100AA00003130B08D1008B13831603178C170C1438
:100AB0000000000083120313D11B8B17CD0B612D97
:100AC000802D03170C0D0E0D7F390313CE00031775
:100AD0000D080313CF0003170F080313D0004E08AF
:100AE000DA001D254F0803178D0003135008031764
:100AF0008F008D0A03198F0A03100313CD0B2A2DC3
:100B000008008318862D623084008313F701F801F2
:100B1000F901FA01E201E301E401E5016108600481
:100B20005F045E040319C42D2030E6000310DA0DC3
:100B3000DB0DDC0DDD0DE20DE30DE40DE50D6108CF
:100B40006502031DAD2D60086402031DAD2D5F0815
:100B50006302031DAD2D5E086202031CBE2D5E08FC
:100B6000E2025F08031C5F0FE3026008031C600FD2
:100B7000E4026108031C610FE5020314F70DF80D90
:100B8000F90DFA0DE60B962D62088000840A6308C1
:100B90008000840A64088000840A650880000800D8
:100BA0000408D2005108D4000319EF2D5008DD00CD
:100BB0004F08DC004E08DB004D08DA00E101E001DF
:100BC0002030DF008230DE00D4227A08D00079089D
:100BD000CF007808CE007708CD00D40BD62D500872
:100BE000DD004F08DC004E08DB004D08DA005A0833
:100BF000B63CDA00FA015B08DE00DB170310DB0C01
:100C0000DC0CDD0CFA0CF90CF80CF70CDA0BFE2DF1
:100C1000DE1F152EF709F809F909FA09F70A031971
:100C2000F80A0319F90A0319FA0A7A08D0007908B0
:100C3000CF007808CE007708CD00D01F2C2ED2032D
:100C4000D216CD09CE09CF09D009CD0A0319CE0A93
:100C50000319CF0A0319D00A3B30D9009A30D800C3
:100C6000CA30D700D6010A30D40051080319D20A7D
:100C700083144D30840083135008DD004F08DC00DE
:100C80004E08DB004D08DA005908E1005808E00082
:100C90005708DF005608DE0081257808F708031D95
:100CA000642E510A54020319642E52080319662E49
:100CB0000F39540203195E2E0318962ED21B962E5E
:100CC000521B662E2030922E2030D205D21E742E5A
:100CD000D2125108031DD2037708D2002D30DA005A
:100CE0001D255208F700D20151085402031D822E1F
:100CF0007708D2002E30DA001D255208F700203088
:100D0000D20500303030D21E922ED2125108031D6F
:100D1000D2037708D2002D30DA001D255208F700E3
:100D2000D2013030F7077708DA001D258310590803
:100D3000DD005808DC005708DB005608DA00E10146
:100D4000E001DF010A30DE0081257A08D900790848
:100D5000D8007808D7007708D600D40B382E0800C2
:100D600080080319C52ECE010408CD004E10831B48
:100D70004E140008D000FA204D08840083134E184A
:100D80008317840A0319850AB02E08004E08D5007F
:100D90005208D506D51FD12E03110310CE1B031404
:100DA000042F4E08D5005108D6004D08D60203196D
:100DB000DF2ED51F042F0308013A8300042F5208A9
:100DC000D6004E08D6020319EB2ED51F042F0308B8
:100DD000013A8300042F5308D6004F08D6020319A6
:100DE000F72ED51F042F0308013A8300042F54085F
:100DF000D6005008D6020319032FD51F042F03086D
:100E0000013A8300042F03100800CA144A0883160D
:100E10008700831287182D2F1430D3001720CA148F
:100E20004A0883168700831287182D2F8310230802
:100E3000D6002208D5002108D4002008D300DA010A
:100E4000D901D8017F30D70049237A08A300790857
:100E5000A2007808A1007708A0004A144A08831667
:100E6000870083120718552F1430D30017204A1417
:100E70004A088316870083120718552F8314230806
:100E8000D6002208D5002108D4002008D300DA01BA
:100E9000D901D8017F30D70049237A08A300790807
:100EA000A2007808A1007708A0002308D00022083B
:100EB000CF002108CE002008CD00D401D301D201FB
:100EC000D101C626031C682FA301A201A101A00124
:060ED0008A150A12A22897
:1010000003081F398300A301A201A101A001FF3041
:10101000CA00CC01CB0183161F149F141F159F110A
:1010200007309C0083138A11831226298A15043005
:1010300003178D0000308F008A11031397218A1542
:101040000130CD008A118A2C8A150130D100D200DE
:101050008A11E8208A15CC012830CB00053003170F
:101060008D0000308F00031006300313CD008A116D
:101070002A258A15893084002708D0002608CF0049
:101080002508CE002408CD000130D1008A11D025DA
:101090008A152030DA008A111D258A15283084002F
:1010A00083138A11B0268A15DF30D0008A11FA2006
:1010B0008A150B3003178D0000308F008A1103133F
:1010C00097218A150130D1000230D2008A11E82020
:1010D0008A15CC013930CB000D3003178D0000305C
:1010E0008F0003100A300313CD008A112A258A15B8
:1010F000893084002308D0002208CF002108CE00C8
:101100002008CD000130D1008A11D0258A15203069
:10111000DA008A111D258A153930840083138A115B
:10112000B0268A15DF30D0008A11FA208A151530D2
:1011300003178D0000308F008A11031397218A1541
:101140008A11052F8A152308D0002208CF00210814
:10115000CE002008CD002708D4002608D30025089B
:10116000D2002408D1008A11C6268A15031CBF2884
:101170004A114A088316870083120715C5284A11A9
:0E1180004A0883168700831207112028630097
:02400E007A3FF7
:00000001FF
;PIC16F877A
;CRC=4DED  CREATED="10-Feb-25 12:19"
